:060000000A128A110C280F
:10000800FE00030EF2000A08F3000A128A11F6280D
:100018000A128A110F2883133030FD000130FE00C8
:100028006230FF00203084000A128A1153210A121C
:100038008A11F501F601F701F80183010A128A1104
:100048008E2883120313B501B11F2B282C283328BF
:10005800B009B109B00A0319B10AB501B50AB31F4D
:10006800362837284028B209B309B20A0319B30A57
:100078000130F4007408B506B601B7013008310440
:100088000319472848287F28B401B40A56280130A4
:100098000310B00DB10DFF3E031D4C280130F400D4
:1000A8007408B407B11F59285A284B280130031087
:1000B800B60DB70DFF3E031D5B2831083302031D43
:1000C800672830083202031C6A286B287228300817
:1000D800B2023108031CB303B30236140130031013
:1000E800B10CB00CFF3E031D73280130B402031D90
:1000F8007E287F285A2835080319832884288928C8
:10010800B609B709B60A0319B70A3708B10036089D
:10011800B00008000A128A1172210A128A110A1202
:100128008A118E210A128A110A128A1131210A12A1
:100138008A118312031320088800831203139F1463
:100148009F18A728A828A4280C131E080F39B80040
:10015800B9013808F7003908F8001030B00000304D
:10016800B1001E08B800B9013808B2003908B30058
:100178000A128A1125200A128A11831203133108E0
:10018800F6003008F5000A128A1182210A128A1133
:1001980083120313061CD128D228DB287708203EB7
:1001A800840083130008880006108614E728861C3C
:1001B800DE28DF28E7287508203E8400831300081E
:1001C800880006148610073083120313B9007C30A8
:1001D800B800B80BED28B90BED280000A1280A12C9
:1001E8008A110C280B1CF928FA282A2983120313D0
:1001F800061BFF28002914292730F100F530F000EC
:10020800F00B0429F10B042983120313061F0D298F
:100218000E292A290130F000700887070B102A29B7
:10022800861B172918292A292730F100F530F000F4
:10023800F00B1C29F10B1C2983120313861F252997
:1002480026292A29013087020B102A2973088A00D7
:10025800720E8300FE0E7E0E090083120313051032
:100268008316031305148316031708148312031344
:100278009F131F17831603139F121F129F138312B6
:1002880003139F121F129F111F111F142130F40016
:10029800F40B4C2908007E088A007F0882000A12A5
:1002A8008A114F210A128A118000840A04087D06E7
:1002B80003190034FF0A0319FE0A53293F34063490
:1002C8005B344F3466346D347D3407347F346F3497
:1002D80077347C3439345E347934713483160317B7
:1002E8008901C030831603138600870188018312B1
:1002F8000313870101308600880108008312031365
:1003080007081E02031C89298A298C2986168D292B
:10031800861208008B178B150B10C0308316031339
:0A0328009600C03095008113080014
:08400000FF3FFF3FFF3FFF3FC0
:04400E00D420FF3F7C
:00000001FF
