:060000000A128A110C280F
:10000800FE00030EF1000A08F2000A128A111328F2
:100018000A128A110F2883010A128A1131280B1C2F
:10002800162817282A288312031306181C281D28A7
:1000380023280130F000700887070B102A2886183B
:10004800262827282A28013087020B1072088A00E0
:10005800710E8300FE0E7E0E09000A128A113F20DF
:100068000A128A110A128A114C200A128A113B2894
:100078000A128A110C288316031789010730831680
:100088000313860087018312031386018701080082
:100098008B178B150B100730831603139600073048
:0600A80095008113080021
:08400000FF3FFF3FFF3FFF3FC0
:04400E00D420FF3F7C
:00000001FF
