:060000000A128A110C280F
:10000800FE00030EF2000A08F3000A128A11EF2814
:100018000A128A110F2883133030FD000130FE00C8
:100028005B30FF00203084000A128A114C210A122A
:100038008A11F501F601F701F80183010A128A1104
:100048008E2883120313B501B11F2B282C283328BF
:10005800B009B109B00A0319B10AB501B50AB31F4D
:10006800362837284028B209B309B20A0319B30A57
:100078000130F4007408B506B601B7013008310440
:100088000319472848287F28B401B40A56280130A4
:100098000310B00DB10DFF3E031D4C280130F400D4
:1000A8007408B407B11F59285A284B280130031087
:1000B800B60DB70DFF3E031D5B2831083302031D43
:1000C800672830083202031C6A286B287228300817
:1000D800B2023108031CB303B30236140130031013
:1000E800B10CB00CFF3E031D73280130B402031D90
:1000F8007E287F285A2835080319832884288928C8
:10010800B609B709B60A0319B70A3708B10036089D
:10011800B00008000A128A116B210A128A110A1209
:100128008A117B210A128A110A128A112A210A12BB
:100138008A118312031320088800831203139F1463
:100148009F18A728A828A4280C131E080F39B80040
:10015800B9013808F7003908F8001030B00000304D
:10016800B1001E08B800B9013808B2003908B30058
:100178000A128A1125200A128A11831203133108E0
:10018800F6003008F500061CCA28CB28D4287708C2
:10019800203E840083130008880006108614E02897
:1001A800861CD728D828E0287508203E84008313A9
:1001B8000008880006148610073083120313B9005C
:1001C8007C30B800B80BE628B90BE6280000A12857
:1001D8000A128A110C280B1CF228F32823298312EF
:1001E8000313061BF828F9280D292730F100F530EC
:1001F800F000F00BFD28F10BFD2883120313061FF6
:100208000629072923290130F000700887070B10F9
:100218002329861B1029112923292730F100F530BD
:10022800F000F00B1529F10B152983120313861F13
:100238001E291F292329013087020B10232973083F
:100248008A00720E8300FE0E7E0E090083120313CD
:100258000510831603130514831603170814831255
:1002680003139F131F17831603139F121F129F1345
:10027800831203139F121F129F111F111F14213085
:10028800F400F40B452908007E088A007F088200E4
:100298000A128A1148210A128A118000840A040865
:1002A8007D0603190034FF0A0319FE0A4C293F345E
:1002B80006345B344F3466346D347D3407347F3410
:1002C8006F3477347C3439345E347934713483163E
:1002D80003178901E030831603138600870188011C
:1002E80083120313870101308600880108008B17E9
:1002F8008B150B10E030831603139600E030950041
:040308008113080055
:08400000FF3FFF3FFF3FFF3FC0
:04400E00D420FF3F7C
:00000001FF
